S0100000656C657661746F722E73726563B2
S11300000C942A000C9447000C9447000C9447006D
S11300100C9447000C9447000C9447000C94470040
S11300200C9447000C9447000C9447000C94470030
S11300300C9447000C9447000C9447000C94470020
S11300400C9449000C9447000C9447000C9447000E
S11300500C94470011241FBECFE5D8E0DEBFCDBF0E
S113006010E0A0E6B0E0ECEBFFE002C005900D92DA
S1130070AA37B107D9F720E0AAE7B0E001C01D9282
S1130080A438B207E1F70E945F010C94DC070C94DA
S113009000001F920F920FB60F9211242F933F93DB
S11300A04F935F936F937F938F939F93AF93BF937C
S11300B0EF93FF9364B175B180E090E00E94E20297
S11300C026EF38E24CE950E40E94700320E030E06F
S11300D040E251E40E9441020E94B302643271057D
S11300E014F0DB9A01C0DB98369AFF91EF91BF912F
S11300F0AF919F918F917F916F915F914F913F91BC
S11301002F910F900FBE0F901F90189588EF8ABB08
S11301101BBA88E787BB18BA8FEF84BB15BA11BA2C
S113012012BA089582B38F6082BB20E030E060E4AD
S113013070E081B3807881BB41B3CB01022E02C051
S1130140959587950A94E2F7842B81BB839B0FC016
S1130150829B07C0819B08C0809913C083E090E014
S113016008C081E090E005C082E090E002C080E039
S113017090E0AC01440F551F840F951F820F931F0D
S113018008952F5F3F4F2330310599F68FEF90E0AC
S113019008958230910591F028F4009749F0019771
S11301A051F012C08330910561F00B9781F00CC0BF
S11301B081E090E0089582E090E0089583E090E08B
S11301C0089584E090E008958FEF90E0089580E032
S11301D090E0089584E487B988EE86B9089589B3D8
S11301E0877090E001978730910510F08FEF90E0D1
S11301F0089586B3877090E001978730910510F0D9
S11302008FEF90E008950F931F93CF93DF938C01AA
S113021086E090E00E94DD03EC011B830A838FEFEC
S11302209FEF99838883C801880F991F0E94DD037B
S11302309D838C83CE01DF91CF911F910F910895FF
S1130240FC0120813181428153814150510924179D
S11302503507D1F0DC010480F581E02D2F5F3F4F9D
S11302602D933C93220F331FE20FF31F608371839E
S11302707F936F9386E690E09F938F930E94FE0492
S11302800F900F900F900F900895DC012D913C91E9
S113029011972F3F8FEF380779F01496ED91FC9169
S11302A01597C90101978D939C93220F331FE20F79
S11302B0F31F80819181089580E090E80895CF93A1
S11302C0DF9300D01F92CDB7DEB784E690E00E94A2
S11302D003017C010E9486000E94EA00789421E0D8
S11302E02983312CC12CD12C88248394912C00E0B7
S11302F010E0212C512C0F2EF9E04F2EF02D08C0C8
S113030083E0898305C08C0103C0890101C0890190
S113031005BB0E94EF009B838A830E9492000E9487
S1130320C9003C01EA81FB81EF3FF10539F00E176A
S11303301F0721F0BF01C7010E942001FFEF6F16C4
S1130340710439F00615170521F0B301C7010E94A5
S113035020012981213039F0B8F1223009F466C036
S1130360233071F08CC0F70180819181019681F274
S1130370C7010E9445015C010817190709F6C8CF97
S1130380B79902C0DD9AC4CFDD98C39A2FE788E3FA
S113039091E0215080409040E1F700C00000C398F4
S11303A00A151B0530F06894332436F8822C952CFA
S11303B006C06894332435F888248394912C88B338
S11303C0832988BB1982A4CF0E94F9008F3F91052D
S11303D009F49ECF0817190709F495CFA816B90692
S11303E059F4EFE3FCE93197F1F700C00000F2E0C3
S11303F0F983C22CD52C8CCF8114910439F0980147
S11304002F5F3F4F8217930741F47FCF980121500C
S113041031098217930709F47ACF26E025BB8FE3CD
S11304209CE90197F1F700C0000072CF0E94F90027
S1130430CD2839F428B32F7928BBCC24C394D12CEC
S113044005C028B3232928BBC22CD52CA816B9066D
S113045009F05ECF850188B38F7988BBC49AC398AD
S11304609FE7E8E3F1E09150E040F040E1F700C09D
S1130470000088B3877E88BB21E0298349CF45BA31
S113048047CF0E9455020C9436030E942F0358F064
S11304900E94280340F029F45F3F29F00C941F03C5
S11304A051110C946A030C9425030E94470368F3CA
S11304B09923B1F3552391F3951B550BBB27AA2719
S11304C062177307840738F09F5F5F4F220F331F53
S11304D0441FAA1FA9F335D00E2E3AF0E0E832D01B
S11304E091505040E695001CCAF72BD0FE2F29D01E
S11304F0660F771F881FBB1F261737074807AB07F0
S1130500B0E809F0BB0B802DBF01FF2793585F4F64
S11305103AF09E3F510578F00C941F030C946A0343
S11305205F3FE4F3983ED4F3869577956795B79546
S1130530F7959F5FC9F7880F911D9695879597F951
S11305400895E1E0660F771F881FBB1F62177307CA
S11305508407BA0720F0621B730B840BBA0BEE1FDF
S113056088F7E09508950E944F0388F09F5798F00C
S1130570B92F9927B751B0F0E1F0660F771F881FA4
S1130580991F1AF0BA95C9F714C0B13091F00E94BE
S11305906903B1E008950C946903672F782F8827C5
S11305A0B85F39F0B93FCCF3869577956795B395E5
S11305B0D9F73EF490958095709561957F4F8F4F54
S11305C09F4F0895E89409C097FB3EF49095809559
S11305D0709561957F4F8F4F9F4F9923A9F0F92F05
S11305E096E9BB279395F695879577956795B79583
S11305F0F111F8CFFAF4BB0F11F460FF1BC06F5F69
S11306007F4F8F4F9F4F16C0882311F096E911C07A
S1130610772321F09EE8872F762F05C0662371F09B
S113062096E8862F70E060E02AF09A95660F771FAF
S1130630881FDAF7880F9695879597F9089597F9A3
S11306409F6780E870E060E008959FEF80EC089574
S113065000240A941616170618060906089500249D
S11306600A9412161306140605060895092E039417
S1130670000C11F4882352F0BB0F40F4BF2B11F48B
S113068060FF04C06F5F7F4F8F4F9F4F089557FDEA
S11306909058440F551F59F05F3F71F04795880FEC
S11306A097FB991F61F09F3F79F087950895121683
S11306B013061406551FF2CF4695F1DF08C016162F
S11306C017061806991FF1CF8695710561050894E0
S11306D00895E894BB2766277727CB0197F90895F7
S11306E00E9483030C9436030E94280338F00E946E
S11306F02F0320F0952311F00C941F030C94250371
S113070011240C946A030E94470370F3959FC1F36C
S1130710950F50E0551F629FF001729FBB27F00DAB
S1130720B11D639FAA27F00DB11DAA1F649F662700
S1130730B00DA11D661F829F2227B00DA11D621F4F
S1130740739FB00DA11D621F839FA00D611D221F09
S1130750749F3327A00D611D231F849F600D211DED
S1130760822F762F6A2F11249F5750409AF0F1F070
S113077088234AF0EE0FFF1FBB1F661F771F881FD9
S113078091505040A9F79E3F510580F00C941F03EF
S11307900C946A035F3FE4F3983ED4F3869577950F
S11307A06795B795F795E7959F5FC1F7FE2B880F7F
S11307B0911D9695879597F908950F931F93CF935D
S11307C0DF938230910510F482E090E0E0917C00A8
S11307D0F0917D0020E030E0A0E0B0E0309719F126
S11307E0408151810281138148175907C8F0841749
S11307F0950769F4109731F012960C93129713969B
S11308001C9327C000937C0010937D0022C0211507
S1130810310519F04217530718F49A01BD01EF018D
S1130820DF01F801DBCF21153105F9F0281B390B65
S11308302430310580F48A819B816115710521F092
S1130840FB019383828304C090937D0080937C009A
S1130850FE01329644C0FE01E20FF31F819391938F
S113086022503109398328833AC020917A0030918B
S11308707B00232B41F4209162003091630030937C
S11308807B0020937A002091600030916100211553
S1130890310541F42DB73EB7409164005091650095
S11308A0241B350BE0917A00F0917B00E217F307EB
S11308B0A0F42E1B3F0B2817390778F0AC014E5FCC
S11308C05F4F2417350748F04E0F5F1F50937B008E
S11308D040937A008193919302C0E0E0F0E0CF016D
S11308E0DF91CF911F910F910895CF93DF930097DC
S11308F009F481C0FC01329713821282A0917C001A
S1130900B0917D00109781F420813181820F931F73
S113091020917A0030917B002817390751F5F09324
S11309207B00E0937A0067C0ED0120E030E0CE1751
S1130930DF0740F44A815B819E0141155105F1F0C6
S1130940EA01F5CFD383C28340815181840F951F7F
S1130950C817D90759F488819981840F951F029685
S1130960918380838A819B819383828321153105BE
S113097029F4F0937D00E0937C003DC0E901FB8302
S1130980EA8349915991C40FD51FEC17FD0761F40F
S113099080819181840F951F0296E9019983888350
S11309A0828193819B838A83E0E0F0E012968D91AB
S11309B09C911397009719F0FD01DC01F7CF8D91FD
S11309C09C9111979D012E5F3F4F820F931F2091A1
S11309D07A0030917B002817390769F4309729F49D
S11309E010927D0010927C0002C013821282B09398
S11309F07B00A0937A00DF91CF910895A0E0B0E04E
S1130A00E4E0F5E00C94B507AE014B5F5F4FFA01EB
S1130A1061917191AF0180918000909181000E9459
S1130A201405E2E00C94D107ABE0B0E0EAE1F5E0B4
S1130A300C94A5076C017B018A01FC0117821682C4
S1130A40838181FFCCC1CE0101963C01F6019381E3
S1130A50F70193FD859193FF81917F01882309F428
S1130A60BAC1853239F493FD859193FF81917F0159
S1130A70853229F4B60190E00E940B07E7CF912C50
S1130A80212C312CFFE1F315D8F08B3279F038F4B6
S1130A90803279F08332A1F4232D20611DC08D3280
S1130AA061F0803369F4232D216016C0832D8260A8
S1130AB0382EE32DE4603E2E2AC0F32DF8601DC0CD
S1130AC037FC2DC020ED280F2A3040F08E32B9F4C7
S1130AD036FC81C1232D2064322E19C036FE06C097
S1130AE08AE0989E200D1124922E11C0EAE02E9ED9
S1130AF0200D1124222EF32DF0623F2E08C08C36D7
S1130B0021F4832D8068382E02C0883641F4F70121
S1130B1093FD859193FF81917F018111B3CF982F2C
S1130B209F7D9554933028F40C5F1F4F9FE3998366
S1130B300DC0833631F0833771F0833509F059C025
S1130B4021C0F801808189830E5F1F4F882483941C
S1130B50912C530113C02801F2E04F0E511CF801EF
S1130B60A080B18036FE03C0692D70E002C06FEF33
S1130B707FEFC5010E9400074C018201F32DFF772E
S1130B803F2E16C0280122E0420E511CF801A0801D
S1130B90B18036FE03C0692D70E002C06FEF7FEFB5
S1130BA0C5010E94F5064C01F32DF0683F2E820129
S1130BB033FC1BC0822D90E088169906B0F4B60170
S1130BC080E290E00E940B072A94F4CFF50137FCF1
S1130BD0859137FE81915F01B60190E00E940B0779
S1130BE021102A9421E0821A91088114910471F74A
S1130BF0E8C0843611F0893641F5F80137FE07C0A4
S1130C0060817181828193810C5F1F4F08C0608174
S1130C107181072E000C880B990B0E5F1F4FF32D6B
S1130C20FF763F2E97FF09C090958095709561954A
S1130C307F4F8F4F9F4FF0683F2E2AE030E0A30193
S1130C400E944707882E861845C0853731F4232D26
S1130C502F7EB22E2AE030E025C0932D997FB92E45
S1130C608F36C1F018F4883579F0B5C0803719F0A3
S1130C70883721F0B0C0E92FE061BE2EB4FE0DC06C
S1130C80FB2DF460BF2E09C034FE0AC0292F266054
S1130C90B22E06C028E030E005C020E130E002C0FA
S1130CA020E132E0F801B7FE07C0608171818281E2
S1130CB093810C5F1F4F06C06081718180E090E0DA
S1130CC00E5F1F4FA3010E944707882E8618FB2D35
S1130CD0FF773F2E36FE0DC0232D2E7FA22E8914C2
S1130CE058F434FE0BC032FC09C0832D8E7EA82E2E
S1130CF005C0B82CA32C03C0B82C01C0B92CA4FE89
S1130D000FC0FE01E80DF11D8081803321F49A2D7E
S1130D10997EA92E09C0A2FE06C0B394B39404C060
S1130D208A2D867809F0B394A3FC11C0A0FE06C0F6
S1130D30B21488F4280C922C9B180EC0B21460F4E0
S1130D40B60180E290E00E940B07B394F7CFB2148F
S1130D5018F42B1802C0982C212CA4FE10C0B60144
S1130D6080E390E00E940B07A2FE17C0A1FC03C021
S1130D7088E790E002C088E590E0B6010CC08A2DB7
S1130D80867859F0A1FE02C08BE201C080E2A7FC84
S1130D908DE2B60190E00E940B07891438F4B60185
S1130DA080E390E00E940B079A94F7CF8A94F301B2
S1130DB0E80DF11D8081B60190E00E940B078110BF
S1130DC0F5CF222009F442CEB60180E290E00E94E1
S1130DD00B072A94F6CFF6018681978102C08FEF24
S1130DE09FEF2B96E2E10C94C107FC010590615042
S1130DF070400110D8F7809590958E0F9F1F08952D
S1130E00FC016150704001900110D8F780959095D5
S1130E108E0F9F1F08950F931F93CF93DF93FB01B2
S1130E20238121FD03C08FEF9FEF2CC022FF16C04A
S1130E3046815781248135814217530744F4A081A8
S1130E40B1819D012F5F3F4F318320838C93268195
S1130E5037812F5F3F4F3783268314C08B01EC010A
S1130E60FB010084F185E02D0995892BE1F6D80179
S1130E7016968D919C911797019617969C938E9335
S1130E801697CE01DF91CF911F910F910895FA012A
S1130E90AA27283051F1203181F1E8946F936E7FB5
S1130EA06E5F7F4F8F4F9F4FAF4FB1E03ED0B4E0A6
S1130EB03CD0670F781F891F9A1FA11D680F791FE7
S1130EC08A1F911DA11D6A0F711D811D911DA11DF8
S1130ED020D009F468943F912AE0269F1124301908
S1130EE0305D3193DEF6CF010895462F4770405DA3
S1130EF04193B3E00FD0C9F7F6CF462F4F70405D52
S1130F004A3318F0495D31FD4052419302D0A9F7AC
S1130F10EACFB4E0A6959795879577956795BA95A6
S1130F20C9F700976105710508959B01AC010A2E6C
S1130F3006945795479537952795BA95C9F7620F43
S1130F40731F841F951FA01D08952F923F924F92E7
S1130F505F926F927F928F929F92AF92BF92CF9245
S1130F60DF92EF92FF920F931F93CF93DF93CDB74E
S1130F70DEB7CA1BDB0B0FB6F894DEBF0FBECDBFC6
S1130F8009942A88398848885F846E847D848C8497
S1130F909B84AA84B984C884DF80EE80FD800C81A0
S1130FA01B81AA81B981CE0FD11D0FB6F894DEBF83
S10F0FB00FBECDBFED010895F894FFCFF3
S1130FBC000084002000256420707573686564202B
S10D0FCC746F20737461636B0A00F4
S9030000FC
